:020000040800F2
:10000000E8080020010500086D050008730C0008D1
:100010006D0500086D0500086D0500080000000072
:100020000000000000000000000000006D05000856
:100030006D050008000000006D05000801090008BA
:100040006D0500086D0500086D0500086D050008C8
:100050006D0500086D0500086D0500086D050008B8
:100060006D0500086D0500086D0500086D050008A8
:100070006D0500086D0500086D0500086D05000898
:100080006D0500086D0500086D0500086D05000888
:100090006D0500086D0500086D0500086D05000878
:1000A0006D0500086D0500086D0500086D05000868
:1000B0006D0500086D0500086D0500086D05000858
:1000C0006D0500086D0500086D0500086D05000848
:1000D0006D050008710D0008F50900086D050008A0
:1000E0006D0500086D0500086D0500086D05000828
:1000F0006D0500086D0500086D0500086D05000818
:100100006D0500086D0500086D0500086D05000807
:100110006D0500086D0500086D0500086D050008F7
:100120006D0500086D0500086D0500086D050008E7
:100130006D0500086D0500086D0500086D050008D7
:100140006D0500086D0500086D0500086D050008C7
:100150006D0500086D0500086D0500086D050008B7
:100160006D0500086D0500086D0500086D050008A7
:100170006D0500086D0500086D0500086D05000897
:100180006D0500086D05000880B58AB000AF786085
:10019000396000237B6200233B620023FB61002364
:1001A000BB617B681B8A9BB27B627B6A23F44053F2
:1001B0007B623B68DB881A467B6A13437B627B6AFF
:1001C0009AB27B681A827B689B899BB27B627B6A4E
:1001D00023F4B05323F00C037B623B689A883B689E
:1001E0001B8913439AB23B685B8913439BB21A463F
:1001F0007B6A13437B627B6A9AB27B689A817B68D5
:100200009B8A9BB27B627B6A23F440737B623B6870
:100210009B891A467B6A13437B627B6A9AB27B682E
:100220009A8207F10803184600F046FA7B68304AC4
:10023000934203D07B682F4A934202D17B693B6291
:1002400001E03B693B627B689B899BB21BB2002B40
:100250000CDA3A6A13469B0013449A001A443B682E
:100260001B685B00B2FBF3F3FB610BE03A6A1346D9
:100270009B0013449A001A443B681B689B00B2FB26
:10028000F3F3FB61FB691C4AA2FB03235B091B011F
:100290007B627B6A1B09642202FB03F3FA69D31AAF
:1002A000BB617B689B899BB21BB2002B0CDABB69DC
:1002B000DB003233104AA2FB03235B0903F0070380
:1002C0007A6A13437B620BE0BB691B0132330A4A33
:1002D000A2FB03235B0903F00F037A6A13437B62DB
:1002E0007B6A9AB27B681A8100BF2837BD4680BD01
:1002F00000100140001401401F85EB5180B483B011
:1003000000AF78600B46FB70FB78002B08D07B6851
:100310009B899BB243F400539AB27B689A8107E0B1
:100320007B689B899BB223F400539AB27B689A81C5
:1003300000BF0C37BD465DF8047B704780B483B0C6
:1003400000AF78600B467B807B88C3F308039AB2CA
:100350007B689A8000BF0C37BD465DF8047B704710
:1003600080B483B000AF78607B689B889BB2C3F396
:1003700008039BB218460C37BD465DF8047B7047F6
:1003800080B487B000AF78600B467B8013467B70EB
:1003900000233B610023FB600023BB6000237B61E3
:1003A0007B687B617B88DBB25B09DBB23B617B886E
:1003B00003F01F03FB600122FB6802FA03F3BB603A
:1003C0003B69012B03D17B690C337B6109E03B69FD
:1003D000022B03D17B6910337B6102E07B6914330C
:1003E0007B617B78002B06D07B697A691168BA68DB
:1003F0000A431A6006E07B697A691168BA68D243D9
:100400000A401A6000BF1C37BD465DF8047B704788
:1004100080B485B000AF78600B467B800023FB730F
:100420007B681B889AB27B8813409BB2002B02D05A
:100430000123FB7301E00023FB73FB7B1846143799
:10044000BD465DF8047B704780B487B000AF78602C
:100450000B467B800023FB6000237B610023BB6095
:100460000023FB747B88DBB25B09DBB2BB607B885B
:1004700003F01F037B6101227B6902FA03F37B61B6
:10048000BB68012B07D17B689B899BB21A467B69AD
:1004900013407B6111E0BB68022B07D17B681B8A8C
:1004A0009BB21A467B6913407B6106E07B689B8A9E
:1004B0009BB21A467B6913407B617B881B0A9BB207
:1004C000FB600122FB6802FA03F3FB607B681B8878
:1004D0009BB21A46FB681340FB607B69002B05D07A
:1004E000FB68002B02D00123FB7401E00023FB74A6
:1004F000FB7C18461C37BD465DF8047B704700BF87
:1005000080B582B000AF134B7B60134B3B6007E0BC
:100510003B681A1D3A607A68111D796012681A608A
:100520003B680E4A9342F3D30D480E494FF0000248
:100530008842B8BF40F8042BFADBDFF82C000168D2
:1005400041F47001016000F061F800BF0837BD465A
:1005500080BD00BF610F00080000002010000020D7
:1005600010000020E800002088ED00E080B400AF1B
:10057000FEE700BF80B483B000AF03463960FB7173
:1005800097F90730002B0BDA0D49FB7903F00F03C5
:10059000043B3A68D2B21201D2B20B441A7609E097
:1005A000084997F907303A68D2B21201D2B20B4427
:1005B00083F8002300BF0C37BD465DF8047B70470D
:1005C00000ED00E000E100E080B582B000AF7860AF
:1005D0007B68B3F1807F01D3012311E00A4A7B6875
:1005E00023F07F43013B53600F214FF0FF30FFF7B3
:1005F000C1FF054B00229A60034B07221A600023BB
:1006000018460837BD4680BD10E000E080B584B0D4
:1006100000AF3B46184600F04FF83B68084AA2FB83
:1006200003239B091846FFF7CFFF00F02DFB00F0D6
:100630006DF900F007F8AA2000F020FAFBE700BFF0
:10064000D34D621080B582B000AF0023BB80002381
:100650007B8000F001FA27E000BF00F0BDFB0346FD
:10066000FA2BFAD11623FB710AE000F0B5FB034622
:10067000BB80B7F90430002B02DBFB79013BFB7137
:10068000FB79002BF1D11523FB710AE000F0A4FBEC
:1006900003467B80B7F90230002B02DBFB79013B7C
:1006A000FB71FB79002BF1D1B7F90430FA2BD3D1D0
:1006B00000BF0837BD4680BD80B489B000AF786008
:1006C0000023BB6100237B610023FB6102233B61AC
:1006D0000023FB600223BB60484B9B6803F00C03C4
:1006E000BB61BB69042B07D0082B09D0002B3FD17D
:1006F0007B68434A1A603FE07B68424A1A603BE0ED
:100700003E4B5B6803F480039B0DFB603B4B5B68D7
:1007100003F03F03BB60FB68002B0DD0394ABB6878
:10072000B2FBF3F2354B596847F6C0730B409B0997
:1007300003FB02F3FB610CE0314ABB68B2FBF3F24E
:100740002E4B596847F6C0730B409B0903FB02F31D
:10075000FB612A4B5B6803F440331B0C01335B00E5
:100760003B61FA693B69B2FBF3F27B681A6003E014
:100770007B68234A1A6000BF204B9B6803F0F0039C
:10078000BB61BB691B09BB611F4ABB6913441B7872
:10079000DBB27B617B681A687B69DA407B685A60F0
:1007A000164B9B6803F4E053BB61BB699B0ABB61BA
:1007B000154ABB6913441B78DBB27B617B685A68BE
:1007C0007B69DA407B689A600C4B9B6803F460435A
:1007D000BB61BB695B0BBB610B4ABB6913441B78F4
:1007E000DBB27B617B685A687B69DA407B68DA60E0
:1007F00000BF2437BD465DF8047B704700380240D7
:100800000024F40000127A000000002080B483B0BD
:1008100000AF78600B46FB70FB78002B06D00A49CE
:10082000094B1A6B7B6813430B6306E00649064BC2
:100830001A6B7B68DB4313400B6300BF0C37BD466C
:100840005DF8047B704700BF0038024080B483B07D
:1008500000AF78600B46FB70FB78002B06D00A498E
:10086000094B1A6C7B6813430B6406E00649064B80
:100870001A6C7B68DB4313400B6400BF0C37BD462A
:100880005DF8047B704700BF0038024080B483B03D
:1008900000AF78600B46FB70FB78002B06D00A494E
:1008A000094B5A6C7B6813434B6406E00649064BC0
:1008B0005A6C7B68DB4313404B6400BF0C37BD466A
:1008C0005DF8047B704700BF0038024080B400AF81
:1008D000094B1B68002B04D0074B1B68013B064AE1
:1008E0001360064B1B680133044A136000BFBD460A
:1008F0005DF8047B704700BF1C0000201000002042
:1009000080B500AFFFF7E2FF00BF80BD80B586B0C5
:1009100000AF00F05BF84FF4E133BB600023BB8114
:100920000023FB8100233B820023BB820C237B82BC
:1009300001210120FFF76AFF01214FF40030FFF78A
:1009400085FF072202211E4800F040F907220321FB
:100950001B4800F03BF902233B7102237B71042307
:100960003B600023BB710123FB713B4619461448D1
:1009700000F09EF808233B600123BB710023FB714C
:100980003B4619460E4800F093F807F10803194654
:100990000C48FFF7F9FB01210A48FFF7AFFC0122E1
:1009A00040F225510748FFF7EBFC074800F034FA06
:1009B000054800F031FA00BF1837BD4680BD00BFC2
:1009C00000000240004400405C0F000880B582B087
:1009D00000AF26233B7100237B710123BB710123F0
:1009E000FB713B1D184600F057FA00BF0837BD46A3
:1009F00080BD00BF80B582B000AF40F225511248E3
:100A0000FFF722FD0346002B1AD00F48FFF7A8FC82
:100A10000346FB710D4B1B881A460D4B1B88013B8F
:100A20009A420DD0094B1B88632B09D8074B1B88B2
:100A30005A1C91B2054A11801946064AFB79535453
:100A400000BF0837BD4680BD0044004014000020B0
:100A5000160000202000002080B400AF054B0022CB
:100A60001A80054B00221A8000BFBD465DF8047B4A
:100A7000704700BF140000201600002080B582B02F
:100A800000AF0346FB71FB799BB219460748FFF79D
:100A900055FC00BF40210548FFF7BAFC0346002B78
:100AA000F8D000BF0837BD4680BD00BF00440040FD
:100AB00080B487B000AF7860396000237B61002389
:100AC0003B610023FB6000237B6176E001227B69B0
:100AD00002FA03F33B613B681A683B691340FB6011
:100AE000FA683B699A4265D17B681A687B695B004A
:100AF000032101FA03F3DB431A407B681A607B6829
:100B00001A683B681B7919467B695B0001FA03F39D
:100B10001A437B681A603B681B79012B03D03B6842
:100B20001B79022B2ED17B689A687B695B000321BD
:100B300001FA03F3DB431A407B689A607B689A688A
:100B40003B685B7919467B695B0001FA03F31A4342
:100B50007B689A607B685A687B699BB2194601235F
:100B60008B40DB431A407B685A607B685B683A685D
:100B7000927911467A6992B201FA02F292B21A435C
:100B80007B685A607B68DA687B699BB25B000321F3
:100B900001FA03F3DB431A407B68DA607B68DA68AA
:100BA0003B68DB7919467B695B0001FA03F31A4362
:100BB0007B68DA607B6901337B617B690F2B85D9A8
:100BC00000BF1C37BD465DF8047B704780B485B01C
:100BD00000AF78600B467B8013467B700023FB6080
:100BE0000023BB607A787B8803F007039B0002FA3E
:100BF00003F3FB607B88DB089BB218467B88DB082D
:100C00009BB21A467B68083253F822207B8803F097
:100C100007039B000F2101FA03F3DB4302EA030100
:100C20007B6800F1080243F822107B88DB089BB246
:100C30001A467B68083253F82220FB681343BB60D6
:100C40007B88DB089BB21A467B680832B96843F898
:100C5000221000BF1437BD465DF8047B704700BF0B
:100C6000ABBE01E000207047002A00D010600120D8
:100C70007047069801884BF6AB62914202D104306E
:100C800006907047FEE7000080B586B000AF00F028
:100C90005BF84FF4E133BB600023BB810023FB8191
:100CA00000233B820023BB820C237B820121012095
:100CB000FFF7ACFD01211020FFF7E8FD0722092115
:100CC0001E48FFF783FF07220A211C48FFF77EFF1B
:100CD00002233B7102237B714FF400733B600023BE
:100CE000BB710123FB713B4619461448FFF7E0FE38
:100CF0004FF480633B600123BB710023FB713B46D3
:100D000019460E48FFF7D4FE07F1080319460C48B0
:100D1000FFF73AFA01210A48FFF7F0FA012240F200
:100D200025510748FFF72CFB064800F075F80548E9
:100D300000F072F800BF1837BD4680BD00000240C9
:100D400000100140600F000880B582B000AF25237D
:100D50003B7100237B710023BB710123FB713B1DA1
:100D6000184600F099F800BF0837BD4680BD00BFA7
:100D700080B582B000AF40F225511348FFF764FB05
:100D80000346002B1CD01048FFF7EAFA0346FB711C
:100D90000E4B1B881A460E4B1B88013B9A420FD004
:100DA0000A4B1B88632B0BD8084B1B881946094A32
:100DB000FB795354054B1B8801339AB2034B1A80BD
:100DC00000BF0837BD4680BD00100140180000205C
:100DD0001A0000208400002080B400AF0B4B1A885A
:100DE0000B4B1B889A420AD0084B1B885A1C91B2A5
:100DF000064A11801A46074B9B5C1BB201E04FF07C
:100E0000FF331846BD465DF8047B70471A0000208A
:100E1000180000208400002080B584B000AF786006
:100E20000023FB7313E0FB7B7A6813441B789BB2AF
:100E300019461848FFF782FA00BF80211548FFF7CE
:100E4000E7FA0346002BF8D0FB7B0133FB73FB7BF7
:100E50007A6813441B78002BE5D10A210D48FFF76F
:100E60006DFA00BF40210B48FFF7D2FA0346002B72
:100E7000F8D00D210748FFF761FA00BF402105486F
:100E8000FFF7C6FA0346002BF8D000BF1037BD4667
:100E900080BD00BF0010014080B485B000AF786015
:100EA0000023FB730023BB730F237B737B68DB780A
:100EB000002B38D0274BDB68DB4303F4E0631B0ACD
:100EC000FB73FB7BC3F10403BB737A7BFB7B42FAAE
:100ED00003F37B737B685B781A46BB7B02FA03F3F0
:100EE000FB737B689A787B7B1340DAB2FB7B1343FE
:100EF000FB73FB7B1B01FB73174A7B681B78134456
:100F0000FA7B83F80023144A7B681B785B09DBB209
:100F100018467B681B7803F01F03012101FA03F3D5
:100F200042F820300FE00C497B681B785B09DBB28C
:100F300018467B681B7803F01F0301229A4000F1DA
:100F4000200341F8232000BF1437BD465DF8047B21
:100F5000704700BF00ED00E000E100E0000000008D
:010F60000090
:100F6100000000000102030401020304060708094E
:0400000508000000EF
:00000001FF
